:020000040000fa
:080000000002040000000000f2
:020000040000fa
:04000800da03000017
:020000040000fa
:04000c00da03000013
:020000040000fa
:04001000da0300000f
:020000040000fa
:04001400da0300000b
:020000040000fa
:04001800da03000007
:020000040000fa
:04001c00da03000003
:020000040000fa
:04002000da030000ff
:020000040000fa
:04002400da030000fb
:020000040000fa
:04002800da030000f7
:020000040000fa
:04002c00da030000f3
:020000040000fa
:04003000da030000ef
:020000040000fa
:04003400da030000eb
:020000040000fa
:04003800da030000e7
:020000040000fa
:04003c00da030000e3
:020000040000fa
:04004000da030000df
:020000040000fa
:04004400da030000db
:020000040000fa
:04004800da030000d7
:020000040000fa
:04004c00da030000d3
:020000040000fa
:04005000da030000cf
:020000040000fa
:040054007a0300002b
:020000040000fa
:04005800aa030000f7
:020000040000fa
:04005c00da030000c3
:020000040000fa
:04006000da030000bf
:020000040000fa
:04006400da030000bb
:020000040000fa
:04006800da030000b7
:020000040000fa
:04006c00da030000b3
:020000040000fa
:04007000da030000af
:020000040000fa
:04007400da030000ab
:020000040000fa
:04007800160300006b
:020000040000fa
:04007c00da030000a3
:020000040000fa
:04008000da0300009f
:020000040000fa
:04008400da0300009b
:020000040000fa
:04008800da03000097
:020000040000fa
:04008c00da03000093
:020000040000fa
:04009000da0300008f
:020000040000fa
:04009400da0300008b
:020000040000fa
:04009800da03000087
:020000040000fa
:04009c002803000035
:020000040000fa
:0400a000da0300007f
:020000040000fa
:0400a400da0300007b
:020000040000fa
:0400a800da03000077
:020000040000fa
:0400ac00da03000073
:020000040000fa
:0400b000da0300006f
:020000040000fa
:0400b400da0300006b
:020000040000fa
:0400b800da03000067
:020000040000fa
:0400bc00da03000063
:020000040000fa
:0400c000da0300005f
:020000040000fa
:0400c400da0300005b
:020000040000fa
:0400c800da03000057
:020000040000fa
:0400cc00da03000053
:020000040000fa
:0400d000da0300004f
:020000040000fa
:0400d400da0300004b
:020000040000fa
:0400d800da03000047
:020000040000fa
:0400dc00da03000043
:020000040000fa
:0400e000da0300003f
:020000040000fa
:0400e400da0300003b
:020000040000fa
:0400e800da03000037
:020000040000fa
:0400ec00da03000033
:020000040000fa
:0400f000da0300002f
:020000040000fa
:0400f400da0300002b
:020000040000fa
:0400f800da03000027
:020000040000fa
:0400fc00da03000023
:020000040000fa
:04010000da0300001e
:020000040000fa
:04010400da0300001a
:020000040000fa
:04010800da03000016
:020000040000fa
:04010c00da03000012
:020000040000fa
:04011000da0300000e
:020000040000fa
:04011400da0300000a
:020000040000fa
:04011800da03000006
:020000040000fa
:04011c00da03000002
:020000040000fa
:04012000da030000fe
:020000040000fa
:04012400da030000fa
:020000040000fa
:04012800da030000f6
:020000040000fa
:04012c00da030000f2
:020000040000fa
:04013000da030000ee
:020000040000fa
:04013400da030000ea
:020000040000fa
:04013800da030000e6
:020000040000fa
:04013c00da030000e2
:020000040000fa
:04014000da030000de
:020000040000fa
:04014400da030000da
:020000040000fa
:04014800da030000d6
:020000040000fa
:04014c00da030000d2
:020000040000fa
:04015000da030000ce
:020000040000fa
:04015400da030000ca
:020000040000fa
:04015800da030000c6
:020000040000fa
:04015c00da030000c2
:020000040000fa
:04016000da030000be
:020000040000fa
:04016400da030000ba
:020000040000fa
:04016800da030000b6
:020000040000fa
:04016c00da030000b2
:020000040000fa
:04017000da030000ae
:020000040000fa
:04017400da030000aa
:020000040000fa
:04017800da030000a6
:020000040000fa
:04017c00da030000a2
:020000040000fa
:04018000da0300009e
:020000040000fa
:04018400da0300009a
:020000040000fa
:04018800da03000096
:020000040000fa
:04018c00da03000092
:020000040000fa
:04019000da0300008e
:020000040000fa
:04019400da0300008a
:020000040000fa
:04019800da03000086
:020000040000fa
:04019c00da03000082
:020000040000fa
:0401a000da0300007e
:020000040000fa
:0401a400da0300007a
:020000040000fa
:0401a800da03000076
:020000040000fa
:0401ac00da03000072
:020000040000fa
:0401b000da0300006e
:020000040000fa
:0401b400da0300006a
:020000040000fa
:0401b800da03000066
:020000040000fa
:0401bc00da03000062
:020000040000fa
:0401c000da0300005e
:020000040000fa
:0401c400da0300005a
:020000040000fa
:0401c800da03000056
:020000040000fa
:0401cc00da03000052
:020000040000fa
:0401d000da0300004e
:020000040000fa
:0401d400da0300004a
:020000040000fa
:0401d800da03000046
:020000040000fa
:0401dc00da03000042
:020000040000fa
:0401e000da0300003e
:020000040000fa
:0401e400da0300003a
:020000040000fa
:0401e800da03000036
:020000040000fa
:0401ec00da03000032
:020000040000fa
:0401f000da0300002e
:020000040000fa
:0401f400da0300002a
:020000040000fa
:0401f800da03000026
:020000040000fa
:0401fc00da03000022
:020000040000fa
:04020000da0300001d
:020000040000fa
:04020400da03000019
:020000040000fa
:04020800da03000015
:020000040000fa
:04020c00da03000011
:020000040000fa
:04021000da0300000d
:020000040000fa
:04021400da03000009
:020000040000fa
:04021800da03000005
:020000040000fa
:04021c00da03000001
:020000040000fa
:04022000da030000fd
:020000040000fa
:04022400da030000f9
:020000040000fa
:04022800da030000f5
:020000040000fa
:04022c00da030000f1
:020000040000fa
:04023000da030000ed
:020000040000fa
:04023400da030000e9
:020000040000fa
:04023800da030000e5
:020000040000fa
:04023c00da030000e1
:020000040000fa
:04024000da030000dd
:020000040000fa
:04024400da030000d9
:020000040000fa
:04024800da030000d5
:020000040000fa
:04024c00da030000d1
:020000040000fa
:04025000da030000cd
:020000040000fa
:04025400da030000c9
:020000040000fa
:04025800da030000c5
:020000040000fa
:04025c00da030000c1
:020000040000fa
:04026000da030000bd
:020000040000fa
:04026400da030000b9
:020000040000fa
:10040000cf2b21000eff27000e0188000000000006
:10041000000020000000e000020032000001200087
:100420002002880014000700e40007000000e0003c
:1004300003003a00c05224000100200002003700ef
:100440000000200001002000810f70000100320038
:100450000f000700000020000000e0000200320052
:100460000000020000000000dc3e0200000000006e
:100470000040da000000fe00800520000000e000df
:1004800002003200002020009001880000000600d9
:10049000a1028800800478000000eb001f003700f4
:1004a000e284440054a0b4009905ba00e2844400f8
:1004b00054a0b4009906ba00e284440054a0b400e9
:1004c0000006eb00476fde00fd07b200ae018800ba
:1004d000636ce10003003a000ad801000000eb0061
:1004e0000e003700606ce10008003a00004deb00a0
:1004f0000a05e800020039003420ec000af0a000f0
:100500008b05e900f9ff3e00040037006168e10057
:10051000010032000086eb000b00070019c7ba008b
:100520000e04e0001905ba0003003a000a00e000da
:10053000dbff3a0000000600fe07b200ae028800b2
:100540008a047800f5ff37000cd0a300e20f4d00bd
:100550001c003b0089027800354dba000a05e8000e
:10056000020039003420ec000af0a0008b05e900fd
:100570000f003200254dba000a05e80002003900dc
:100580003420ec000af0a0008b05e90008003200de
:100590000c00e0000600320015cdba000a05e800a4
:1005a000020039003420ec000af0a0008b05e900bd
:1005b0008984e80054a0b4000b00e000e2ff3a0098
:1005c000000006009902ba00055d78008b05e9007d
:1005d000f7ff3200c82ade00055d78008b05e900d0
:1005e000f3ff32000c00e000f1ff320019ddba0029
:1005f000eeff3700b239040000000000d23a0400d8
:10060000000000002c3c0400000000008c380400b6
:10061000000000003439040000000000363d0400f2
:10062000000000008a3c040000000000801f7800e9
:100630000000fa0010002000708d88000288a900d8
:100640002288a9000080fa004f00780000400600d0
:10065000809fbe000000fa0010002000808d8800fe
:100660000000210010009000010420008080400064
:10067000000021002000900080805000f00328003e
:10068000008060000000e00004003d000000e90080
:1006900001fc2f00008070000000e800b08d880091
:1006a00080002100100090000104200080804000a4
:1006b000800021002000900080805000f00328007e
:1006c000008060000000e00004003d000000e90040
:1006d00001fc2f00008070000000e800c08d880041
:1006e00003a8a90023a8a9000080fa004f00be00bb
:1006f000004006003600f800809fbe00829fbe00ca
:10070000849fbe00869fbe000000fa000168a90019
:1007100005003700301180000040780080407800ec
:1007200000002100242007001011800061006000fb
:100730000000e000f7ff3a000080fa004f03be001f
:100740004f02be004f01be004f00be003600f90050
:10075000004006003600f800809fbe00829fbe0069
:10076000849fbe00869fbe000200fa000188a90097
:100770008e007800800021002f2007000000e0009c
:10078000040032001e4078000000fb0020118800a9
:10079000010037002188a9000080fa004f03be0045
:1007a0004f02be004f01be004f00be003600f900f0
:1007b000004006000040da000000fe0000000500d6
:1007c000140020006c033700f4ff2f006a03370089
:1007d0004f89de0082017800820337006011b80083
:1007e000900337006022b800060220000000d0000d
:1007f0008180d2000482d2008582d2000000a00055
:100800000202520083825a000300310002024200b9
:1008100083824a000000a1000603e900f3ff3a00ca
:100820000000060007f82700078361000638e10092
:1008300004003a00f70720008783610087037100f6
:1008400001003a0003f0a200889fbe008a9fbe000c
:100850008c9fbe00470ade000480a100c71ade009c
:100860000580a100070028000785600087856100da
:10087000f70f20000720e1009e0032000728e1006a
:100880009c003200010678000400e000b400320051
:10089000f7072000878060000170a0000500e000dd
:1008a000c0003200f7072000878161000370a000bc
:1008b000050652000f003a000b50e1000b00320019
:1008c0000308e10002003a000200e1007e0032006d
:1008d0000204500083845800040031000001fd0030
:1008e0008101fd008402fd008a05fd006044b8001e
:1008f000210037000520e10005003d000001fd005a
:100900008101fd008402fd008a05fd0005065200fc
:100910007a60e100050035000170a1004722dd008a
:10092000848070008a807000630037006044b800e3
:10093000ef02660007ff2f00070666000500e000d3
:1009400006003400f08312008714dd000511de007c
:10095000071bdd00060171008519de007060e100f3
:10096000050035000904780082047800030178004e
:100970008001eb00700656000b50e10003003a00c6
:100980000200400083804800040037006004140027
:10099000e0841c0002005800838058000188a300f6
:1009a000060032008100d1000080d3008984d3008a
:1009b0000884d3000402e800270037000178a30070
:1009c00025003a000100e000030032008186cf00dc
:1009d000698656000a0037008c0020000000e00005
:1009e00004003a0009007800880478000004eb0055
:1009f000700252008086cf000d0646000c06e9000a
:100a00007060e10006003500800078000900780081
:100a1000880478000004eb00700656007002520053
:100a20000c00e0000c0034008c08dd00f003160020
:100a30000703de00868070000c00dd00074bde003f
:100a4000060070008c4cdd000743de0086847400d5
:100a50000c44dd000c0252006120e1002000350052
:100a6000610160000700280087816400f7ff27000c
:100a700087836400070374000300e000060032006f
:100a800082037300040032000000e800e0804800a8
:100a90000188a3000e003a00f70f20000720e100b4
:100aa0004a003d000170a1004722dd008100720074
:100ab0008a8070000000be004f06be004f05be00d9
:100ac0004f04be00000006006000b800faff3700c7
:100ad0008100d1000080d3000402e800eeff37005f
:100ae0000401780089017400a10107008a80700068
:100af000f1ff3700f7010700070278000001fd0051
:100b00008101fd00f3010700870278008503720070
:100b10000778a300040032000001fd008101fd0000
:100b200006020700e4ff3700850362000768a300a0
:100b3000080032000b50e10003003200f0ff2f00ec
:100b4000f1ff2700dcff37000001fd008101fd00ff
:100b5000d9ff37000468a300d7ff3200faff37003f
:100b6000f8ff2700888360000b003a000000e000d7
:100b700009003a008303640082837300020032009c
:100b80000200be00ccff37000b50e100ceff3a0060
:100b90000200be00c8ff370014002000810064007e
:100ba0003eff3700f8ff27008883610004003a0009
:100bb0000200e00002003a008c007800beff37001f
:100bc000150020008301640039ff370001f8270079
:100bd0000000200081007500b7ff3700889fbe002d
:100be0008a9fbe008c9fbe001b0020000202be0038
:100bf0000586680006002800060666004709de0034
:100c0000f20fb200820032000243e800800032009e
:100c1000c729de00f30fb2007d0032000343e80075
:100c20007b003200f107b2000170a000f507b200ae
:100c30000570a000c708dd004903de008680700053
:100c40004700dd00c72add004923de0086827200ee
:100c50004722dd000305510004035000858358003e
:100c60000300310000004000818048000a05e900cf
:100c70008c1f78008a9fbe000400500085805800b9
:100c80000402420085824a00000040008180480042
:100c90000005eb000004be006033b8000406be008f
:100ca0000d48e10056003100110009004dccd8007c
:100cb0000c01b8000d02b8008481410060824a0036
:100cc0008283530003045c0084845c0060055d0043
:100cd0000a00e00025003a00800578000d40e100a0
:100ce00049003100880078000700780011000900f1
:100cf0004d88d8000c01b8000d02b8008481410075
:100d000060824a006003110083835b0004045c007e
:100d1000e0845c000900e00021003a004f01be00c1
:100d20000300e0002b003200e301600007067300bf
:100d30008c81710001003200640070004200de000e
:100d40004e5edd000c007000c258de0001e0a00025
:100d500083010700cf017800818071004f06be003b
:100d60004f05be004f04be00000006008c83430008
:100d70000d044c00e0844c0060054d000000e900cb
:100d80000a00e000d4ff32008c8343000d044c00c5
:100d9000e0844c0060054d000000e900ceff370004
:100da0000c0343008d834b0060044c00e0844c0036
:100db0000000e9000900e000d8ff32000c03430006
:100dc0008d834b0060044c00e0844c000000e9007f
:100dd000d2ff37004200de004e5edd000c007000e6
:100de000c258de0001e0a000cf0178000300e0005f
:100df000daff320060001000e0801800d7ff3700f3
:100e0000f0ff2f00aaff3700f0ff2f00b9ff3700d7
:100e10000404be002f010700870678000004fd00cf
:100e20008104fd002b010700078366000678a300fc
:100e3000030032000960a7000800be002c00370044
:100e40000d78a300020032000800be002800370021
:100e50000778a30026003a0001f0a10009f0a100e4
:100e60000668a30003003200f1ff2700f0ff2f0007
:100e7000baff37000d68a300030032000800be006f
:100e80008c807000b5ff37000768a30007003a00a8
:100e90000648a30003003200f1ff2700f0ff2f00f7
:100ea000aeff37000d48a300030032006000b80019
:100eb0008c807000a9ff37000748a30004003200af
:100ec00001f82700000020008c807000a3ff37008d
:100ed000760107000004fd008104fd000205780092
:100ee000720107000802be008a01780059ff37002e
:100ef0000160a00012022000a280880097ff370046
:100f00000100e000120032000500e0001000320095
:100f1000889fbe008a9fbe008c9fbe000006eb002b
:100f200001f8a3000300320060001000e080180008
:100f30000cf0a00005f8a3000300320060021200cc
:100f4000e0821a000cf0a2008005eb0041ff3700a0
:100f50006000b80002000500038368000700280055
:100f600007036300470ade000480a100c71ade0001
:100f70000580a100f70f20000720e10042003200a9
:100f80000728e10040003200889fbe008a9fbe0013
:100f90008c1f7800f107b200f307b2000400e000f4
:100fa000640032000170a0000500e000680032001b
:100fb0000370a00085054200eb07b1000204b800f1
:100fc0000302b8008484440060854a00020ab80025
:100fd000848444000a854a00030ab80004054500d9
:100fe000040033000804d0008984d2000a85d200ae
:100ff0008b05e9006158e1003d003500021020003a
:10100000090161000308200089816100f7072000c1
:101010008783640008867300c84cde00c853dd0077
:10102000878474004855de000300e00006003200ab
:1010300082037600040032008904e80060054d0058
:101040000a88a3000c003a00f70f20000758e100bf
:1010500044003d000a70a100c75ddd000a857500ef
:101060008a007300090078004f0678004f05be0023
:101070004f04be00000006000a05d1008984d30099
:101080008b05e800f0ff3700881f78000604780021
:1010900090000700070278000001fd008101fd00bb
:1010a0008c00070087027800850372000778a30090
:1010b000050032000001fd008101fd009f000700d6
:1010c0004f04780000000600850372000748a30063
:1010d00003003200f0ff2f00f1ff2700f8ff370078
:1010e0000000200001f8270088807000f4ff37001e
:1010f000880178004848dd00808171004848de00a2
:10110000c850dd0001007000c850de000604780001
:101110000b0178001600070088807000d2ff3700ae
:101120000500e00005003200170020003a0007002b
:101130009dff370081037000f9ff3a0086007800b8
:101140004f0678004f05be004f04be0000000500aa
:1011500083037100f9ff3200270020002e000700f2
:1011600094ff370001f8270086807000f4ff3700f5
:101170000100e00026003200610111007810e1005a
:1011800023003c006022b8007010e100040035002c
:1011900080027800010078008000eb0070015100af
:1011a0000200e0000900340070031100062add008f
:1011b000822ade008603dd00878272000200de00e4
:1011c000860bdd00070070008208de00848171005c
:1011d000f4ff27000482620084817100040028006b
:1011e000848262006102600005f0a6000000060033
:1011f00004827100070032000000e800e08048002f
:10120000000006000002be006000b800efff3700db
:101210006000b80000000600889fbe000004eb00dc
:101220006138e10016003a000100e00008003a00d1
:10123000c800de004800dd00880020000100e0005a
:1012400003003a00c800de004800dd0068044400e6
:101250008184cf00e9845400060034008908dd0051
:10126000f08314008703de00878070000900dd0032
:1012700009044400610214004f04be00000006008f
:101280000300e00008003a00c811de004811dd004c
:10129000880020000300e00003003a00c811de00cf
:1012a0004811dd00680444008384cf00e9845400c1
:1012b000060034008919dd00f08314008713de0076
:1012c000878171000911dd0009044400e102140066
:1012d000e9ff37002700200001f0a70017002000d9
:1012e000470bde00f60fb200040032000643e800b0
:1012f0000a0032004702b300000006000103780034
:10130000f607b2000603700002003a000703b300bc
:10131000000006008702b300000006000103780009
:10132000f607b20006037000020032000770a0004a
:10133000000006000760a000000006000478a3007b
:10134000040032000578a300030032000168a30006
:1013500001003a000200be000160a000000006008b
:1013600081017000270032008002eb0001f8a30029
:101370000300320060001000e0801800150020001b
:10138000f40720000202420020003400f70320008e
:1013900087036000060420000003630002082000a9
:1013a000000161004700de00c909dd000080710016
:1013b000c708de000600e000080032008703710065
:1013c000060032001000b0000180b0000188a300c8
:1013d00002003200c108de000402e800f107b2009a
:1013e000f30f20000320e10003003d004722dd0051
:1013f000810072002900370001f827000000eb008f
:10140000260037006000b8000000060068021200e5
:101410007f20e100020034006000b8001f003700a8
:101420006011b8007020e1000400350080017800f0
:10143000010078008000eb00700252000400e00020
:1014400009003400f00312000719dd008419de00e2
:101450000703dd00868171000400de00070bdd005c
:10146000060070008408de00f7ff27008383630016
:1014700087037100060028000303630007003200a1
:101480000700e00003003a00610160000281730080
:10149000020032001000b0000180b0000500a6007c
:1014a0000000060001f0a000000006004f0ade0068
:1014b0004709de00f107b200f20fb2000b00320064
:1014c000f207b1000170a000c708dd00c901de000d
:1014d000838070004700dd000400a60000000600c5
:1014e00060001000e080180000000600810f70000e
:1014f00001003a00000006008182cf000500e000f4
:1015000010003e008082cf00ee8242007028e10091
:101510000400390007003e00800078000000eb0066
:101520000e003700708312008600de000500dd002b
:101530000a003700708352008600dd000000eb00d7
:1015400006003700e28252008508dd007083120039
:101550000603de00868070000500dd007507b00020
:101560000501ea000400a60000000600600010006b
:10157000e080180000000600889fbe008a9fbe0021
:10158000841f78007c0007004f00780011003300b2
:10159000f0ff2f00838f6c0006003b000405650000
:1015a0000a00a7000800370009f0a600100020007c
:1015b00008003700820f5400838f5c00030039005d
:1015c0001000200001003e000000200009f0a700ec
:1015d0000000ea004f05be004f04be000000e0001e
:1015e00000000600881f7800030478000300e00074
:1015f00007003d0060001000e08018006001190045
:10160000e081190002003b0001f02d0003003700cb
:101610000400070008f0a70001f0a0004f047800c4
:1016200000000600889fbe008a9fbe0000827000f6
:101630000402710004827100260032000004be0022
:101640000200be006011b8006b0920009502200066
:101650000182cf000a0039000541b1000082cf00ad
:10166000070039000541b1000982cf0004003900ac
:101670000541b1000882cf00010039000541b100e9
:1016800005425200120032000a003b0082817100c4
:10169000610164008100d1000080d3008984d300ff
:1016a0000884d3008b05e8000442e800f7ff3a0005
:1016b000070037000804440089844c0000004800fb
:1016c000818048008b05e9000442e900f9ff3a00f7
:1016d000030007004f05be004f04be0000000600d7
:1016e00081002000618055000b003d000b002000b0
:1016f00061fe2f000100e1001d00340082817100b5
:10170000610164008904d1000884d3000000e8006e
:10171000faff3a00710020006100640003007000cd
:10172000020060000900320061044400e0844c00c3
:101730000988a500050032008b05e8006808e10073
:1017400002003a008904d1000884d300f20f20007f
:101750000258e10005003d00c75ddd00f907b20059
:101760008980750008007800000006000bf827004b
:101770008b007800000005000004be000600070092
:101780000003be000405be000200be000200070008
:10179000844f750000000600c70ade00f107b200a2
:1017a000f50fb20008003200e1cf42000200320023
:1017b0000170a00024000500810f700001003200bc
:1017c0000408050044000500810f700002003a0083
:1017d000140005008502e9000000400081c04800b7
:1017e000fcff3b000170a000240005000000060083
:1017f0000800fa00889fbe008a9fbe008c9fbe0032
:101800000004be000200be00e2b79f00f3b79f00d5
:10181000f6ff07008102780005f0a10000027800c1
:101820000c0020000df827006fb19700ffb1970062
:101830008c0f52008d8f5a000a003e000800be0037
:10184000eaff07008102780005f0a100000278009d
:101850006fb19700ffb197008c0f52008d8f5a0027
:10186000030036000800be00f7fb070098003700b1
:101870000203be000000200001f82300800f530087
:10188000818f5b0003003a000800be00980007004b
:101890008f0037000802be004e3dde000b00200026
:1018a0006000b800620065004f4dde000b002000b4
:1018b0000a0570008b8570008500780001f0a1009a
:1018c00008007800e00f5000e08f580007003a0051
:1018d000e20f5500e08f5d0033003200e30f55004a
:1018e000e08f5d007b003a0032003700870278000d
:1018f00005f0a10006027800e00f5200e08f5a00c8
:101900003b0032008c0f52008d8f5a002c003a00a1
:10191000840f5000858f580018003a00e20f5500e0
:10192000e08f5d0009003200e30f5500e08f5d009d
:1019300009003200e10f5500e08f5d005b003200ce
:10194000b8fd200099f42300620037000200200057
:1019500003042400020037000200200003042c00ce
:10196000b0fd2000910424007bfd07000200200050
:1019700003e8230078fd070055003700e20f55000b
:10198000e08f5d0008003200e30f5500e08f5d003e
:10199000080032006044b800e10f5500e08f5d00a0
:1019a0004c003a0044003700b8fd200099042400a0
:1019b00048003700b8fd200099042c00450037008e
:1019c0000600200007d020000403430085834b005d
:1019d00086bf9f0097bf9f00800f5300818f5b00e1
:1019e000030039008c0f50008d8f580005003a001d
:1019f0000a08a30033003200b8fd200099fc2b0038
:101a0000340037006033b80062036500e00f530014
:101a1000e08f5b00080032000c0020000dd0200099
:101a20000003460081834e006000b800840f53001d
:101a3000858f5b00040039000800be0067fc0700ca
:101a40007c0107002a000700e10f5500e08f5d00d0
:101a5000050032001e003900e20f5500e08f5d00e6
:101a60000b003a00030037000004be0009f0a2009a
:101a700018003700e2d22b00b33b230072fb0700b3
:101a80000001be00b0fd20009104240005003700d5
:101a9000e2d22b00b33b23006bfb0700b2fd20001a
:101aa000930424005ffb070009003700b8fd200005
:101ab00099f42b00070037000800200009002800d7
:101ac00004003700b8fd200099fc23000100370016
:101ad0000004be000800be004f06be004f05be0059
:101ae0004f04be000080fa0000000600000006005f
:101af0000c00fa00889fbe008a9fbe008c9fbe002b
:101b00000004be004f09de0003002000e2b79f0082
:101b1000f3b79f00810678000df0a1000006780061
:101b2000f0ff2f00f1c72400800f5600818f5e0068
:101b3000100036000800be00ecff070081017800ad
:101b400003f0a100000178000000200001f8270048
:101b5000800f5100818f5900b7003e000200200025
:101b600003382000a0fd200091fc230036fb070075
:101b7000a8003700f0ff2f00f1ed2300800f560082
:101b8000818f5e0011003e000085eb00f0ff2f000a
:101b9000f1972300800f5600818f5e0055003e00b4
:101ba000f0ff2f00f1072000800f5600818f5e00ac
:101bb000a1003e000801be000800be00e6fc0700d0
:101bc000c0b79f00d1b79f009b0037000800be0040
:101bd000180107000004be00f0ff2f0071f9230078
:101be000800f5600818f5e0025003e00f0ff2f0021
:101bf000f1f22300800f5600818f5e0011003e003d
:101c00000801be000800be000ffb07000200200014
:101c100003f8230003fb07000005be0002002000bc
:101c2000030024000800be0007fb07000001be00ff
:101c30000a00be00e9fb07000004be000005eb003f
:101c40002c0037000200200003f823000800be002b
:101c5000f4fa07000005be000200200003f823008c
:101c60000800be00f8fa07000001be000a00be002e
:101c7000dafb07000004be001a0020001d00370038
:101c8000f0ff2f00b1012400800f5600818f5e000d
:101c900012003e000200200003fc23000800be00ea
:101ca000e0fa07000005be000200200003fc23004c
:101cb0000800be00a8fc07000200200003f8230073
:101cc000e1fa07000001be000a00be00c3fb0700e6
:101cd0000004be002a002000060037000801be00f4
:101ce0000000200001f82b00bcfb07000004be0030
:101cf0003a0020000801be000800be0096fc070064
:101d00000002be000001be0084bf9f0095bf9f007f
:101d100091fc07000006be0052c22a00c3d7230070
:101d20008dfc0700d2502f0013e12300c6fa0700f4
:101d30000001be000c00be0087fc070092aa2a002a
:101d4000a3ea2300c0fa07000001be000fba970003
:101d50009fba97000400be007ffc07000002be008f
:101d600072242100a3dd2b000c00be0084bf9f0065
:101d700095bf9f0078fc070082a92c00c3e42300d4
:101d8000a8fa07000001be000c00be0072fc0700ac
:101d90000001be000fba97009fba9700e10f4500ff
:101da00009003a000400be00a7fa07000001be00c7
:101db0000800be0068fc07000001be000800be006d
:101dc00098fa07001b0037004255dd00ac262100c1
:101dd0000a0646000400be009bfa07000001be0090
:101de0000800be005cfc0700a22721000a05410094
:101df0001a0178009a0190008afa07000801be00d3
:101e000088fa07000001be001c0078009c009000ca
:101e100084fa07006fb19700ffb19700e00f5100ff
:101e2000e08f5900030032000004be0009f0a20058
:101e3000010037000004be000800be004f06be00cf
:101e40004f05be004f04be000080fa0000000600ef
:101e50000800fa000002be008501780003f0a1002e
:101e600000017800a6fd200097f42300860f5100a2
:101e7000878f59000d003e00f4ff2f00f5972300d7
:101e8000840f5100858f59005a003e000200200047
:101e900003b827006cfa0700e0bf9f00f1bf9f0066
:101ea0000000200001f82300600037004f0ade0028
:101eb00005002000163d2500b7072400860f5100bd
:101ec000878f590019003e0036be2c0067012400a0
:101ed000860f5100878f59000a0036000400e00089
:101ee00004003200b2fd20009304240056fa0700db
:101ef00048003700b2fd20009304240049fa07008f
:101f0000440037000400e00004003200b2fd20006d
:101f100093fc23004cfa0700430037000001be0089
:101f2000b0fd200091fc230019003700561d23004e
:101f3000270e2400860f5100878f590016003e009f
:101f4000f6dd2e00f70a2400860f5100878f590016
:101f50000a0036000400e00004003200b2fd200058
:101f6000930c240038fa070022003700b2fd20004d
:101f7000930c24002bfa07001e0037000400e00039
:101f80000100320001f0a20042be2c0063092400cf
:101f900024fa070024003700f4ff2f00f5f727008c
:101fa000840f5100858f5900030036000001be00e8
:101fb0001cfa07001d0037006881570071010700f7
:101fc0006011b80063016000e10f5100e08f59001b
:101fd0000a003200e20f5100e08f59000b0032007e
:101fe000e00f5100e08f59000d003a004fb8970004
:101ff000dfb89700350107000c0037004fb8970095
:10200000dfb8970001f0a200070037004fb8970033
:10201000dfb897002d01070001f0a2000300370090
:102020004fb89700dfb89700af0107000080fa00b3
:10203000000006000001be008300780001f0a1004e
:1020400002007800000006000800fa00889fbe0029
:102050000004be000001be008300780001f0a10072
:1020600008007800a4fd200095f42300840f5000a0
:10207000858f580018003e00f2ff2f00f3972300d1
:10208000820f5000838f580011003e00f2ff2f0096
:10209000f3072000820f5000838f580005003e0098
:1020a00002002000033820000800be00aafb070041
:1020b000040037000200200003b827000800be001b
:1020c000e1f90700c0bf9f00d1bf9f00710037003a
:1020d0000800be00680037004f49de000300200002
:1020e000143d2500b5072400840f5000858f58004b
:1020f0001f003e0034be2c0065012400840f5000f8
:10210000858f58000e003e000200e00005003200fe
:10211000b2fd200093fc23000800be00caf90700ae
:1021200059003700b2fd200093fc23000800be00d8
:10213000bcf90700e50007000004be0055003700a9
:102140000200e00005003200b2fd200093042400ec
:102150000800be00bcf9070046003700b2fd2000b1
:10216000930424000800be00aef9070041003700c8
:10217000541d2300250e2400840f5000858f580025
:102180001d003e00f4dd2e00f50a2400840f5000ef
:10219000858f58000c003e000200e0000500320070
:1021a00042be2c00630924000800be00a6f9070007
:1021b000e0ff370042be2c00630924000800be0087
:1021c00098f90700300037000200e00005003200f7
:1021d000b2fd2000930c24000800be009af907000d
:1021e00025003700b2fd2000930c24000800be003b
:1021f0008cf9070020003700f2ff2f00f3f72700cb
:10220000820f5000838f5800040036000801be0082
:102210000800be0083f90700c7ff37006c81570034
:102220000800be00d70007006011b800630160001d
:10223000e10f5100e08f590009003200e20f510018
:10224000e08f590009003200e00f5100e08f590083
:102250000b003a002fb89700bfb897000600370070
:102260002fb89700bfb89700b2ff37002fb897007c
:10227000bfb8970001f0a2001b010700aeff3700b6
:102280002fb89700bfb89700900007000004be0069
:1022900009f0a2000800be004f04be000080fa0052
:1022a00000000600889fbe008a9fbe008c9fbe0073
:1022b0000004be000400200005f8270085836000ac
:1022c00004037800840f5300858f5b0007003a00f9
:1022d0000801be000800be001ffb07000001be0091
:1022e0000800be0058f9070010003700e00f50004a
:1022f000e08f58000f003c008101780003f0a1003e
:1023000000017800e00f5100e08f59006a003200b0
:1023100010022000c09588000801be000800be0021
:1023200040f907000001be002cfa07000004be00bf
:1023300061003700478cde00cf8cde00e00f5400d8
:10234000e08f5c000f003a006044b80004003700e2
:10235000000040008180480061044400e0844c009b
:10236000040020000508200081816200040178003b
:10237000e00f5100e08f5900f5ff320061041400b6
:10238000e0841c00f807b1000980b10081017800e9
:10239000f307b200000178000200be000170a00047
:1023a0000808a300020032000000400081804800bd
:1023b0008984d1000884d300000040008180480057
:1023c0009401200002002000031020006055b80096
:1023d0006066b8000c0341008d834900800f5300f4
:1023e000818f5b0006003c0006064100878649009d
:1023f00006005000878058000a0541008b8549007f
:1024000000004000818048008301d1000281d30098
:102410000402e900efff3a00e00f5000e08f58009f
:102420001b0032000226240023da200000002000d6
:1024300001f82300fbf807000200200003f8230046
:10244000e1f807000000e00011003500022624003a
:1024500023da20000000200001f82300faf807002a
:102460000200200003f82300d7f807000000e00076
:102470000300340062054500e0854d00040037008c
:102480006000b800610065000005450081854d00d1
:10249000c744dd00080020000000200001f02300f8
:1024a00008044000898448008b85d1000a85d30048
:1024b0000804450089844d000800be004f06be0098
:1024c0004f05be004f04be0000000600889fbe00fe
:1024d0008a9fbe008c9fbe000001be009efa0700ce
:1024e0000004be000001be009bfa07000005be000c
:1024f0000200200003f02b000800be0096fa07003f
:102500000200200003f82300cff807000006be00f9
:10251000f2a92a00a3d223000a00be008efa070007
:102520000001be000c00be00c7f807000006be0098
:102530000801be000a00be0087fa07000005be00c1
:1025400072a12900c37c23000800be0082fa0700a4
:10255000f243200063ab2300b2f807000001be0085
:102560000a00be007cfa07000001be000c00be009d
:10257000b5f807004f06be004f05be004f04be0071
:10258000000006000800fa00889fbe008a9fbe0077
:102590008c9fbe000005be00020478000001be0052
:1025a0008300780001f0a1000a007800a2fd20005d
:1025b00093dc2400820f5000838f58001d003e00e2
:1025c00032982f0023f223000a00be0062fa0700af
:1025d0000200200003b424009bf807000200200042
:1025e00003b424008ff807000006be000d0d07009d
:1025f00080047800a2fd200093fc23000c00be00a4
:1026000055fa07000001be000a00be0085f8070069
:102610000005be00325a2800832823000c00be00ab
:102620004dfa07000001be000a00be007df8070059
:1026300026003700f2ff2f00f3f72700820f50002b
:10264000838f5800060036000a01be000a00be0053
:1026500074f80700008cbe008004eb001c003700fb
:102660000a00be00500007000005be0032982f008f
:1026700023f2230038fa07000200200003f02300b1
:1026800071f80700be0c07000203be000002be0086
:10269000e4b79f00f5b79f0086bf9f0097bf9f00dc
:1026a000d0fb070032982f0023f223004bf90700dc
:1026b0000001be000a00be005af807006000b80022
:1026c0002004980031049800efb49700008cbe00fd
:1026d000090078004f06be004f05be004f04be0043
:1026e0000080fa0000000600889fbe008a9fbe009e
:1026f0008c9fbe000005be000001be0016fa070058
:102700000004be000a01be0013fa07000006be0066
:102710004288280083c023000800be000efa07008c
:10272000b2aa2a00a3e223003ef807000001be007f
:102730000c00be0008fa07000001be000a00be003f
:1027400041f807000005be000801be000800be00f9
:1027500001fa07000001be000c00be00fef90700f0
:102760000006be00c2c32600636323000800be004b
:10277000f9f90700f27c20000395230029f80700ef
:102780000001be000c00be00f3f907000001be000e
:102790000a00be002cf807004f06be004f05be0021
:1027a0004f04be00000006006022b8006033b8008d
:1027b0000002be00f0ff2f00f1ff2f00f2ff2f00fc
:1027c000f3ff2700000062008180620002016300c5
:1027d00083816300000006000000fa006881570052
:1027e000cfb89700230507000080fa00000006001c
:1027f00060000700bc0007008e03070043040700c9
:102800006d040700c40307001e05070097050700b5
:102810003e0537000000fa0068815700cfb89700e6
:10282000140507000080fa0000000600ae00070053
:10283000140537008001eb000200e00010003200b8
:102840000002780001037800b44178000304e0003e
:1028500008003200b14278000504e00005003200b3
:1028600082034000848f53000200320085cf510064
:10287000f4ff32008381fb001680fb008081510051
:1028800003007800000006004400fa00889fbe00a4
:102890008a1f78000004be000205780094bf9f00e4
:1028a000a5bf9f00b6bf9f00c7bf9f000000eb0001
:1028b000c09f9f00a8af9f00d89f9f000080eb00a3
:1028c000b0af9f006022b8006033b80060fb2f00fb
:1028d0000f004000520a07001fba9700afba9700d6
:1028e0003fbb9700cfbb9700120020008a00780002
:1028f00060fb2f000f004000c30707000900e00045
:10290000060032003fb29700afaa9700048242004f
:10291000df9a970005025200840c44004f057800ae
:102920004f04be000080fa0000000600f4ff2f00f4
:10293000f5ff2f000403be00d3ff37006022b8006c
:102940000600200007002800cfff3700f4ff2f000b
:10295000f5ff2f006033b800cbff370004002000e4
:10296000050028006033b800c7ff3700f3ff3700c9
:10297000eeff3700ec874700889fbe008a9fbe00ad
:102980008c9fbe008e1f780000067800010478003e
:10299000180790002805900098067800cdb79f0092
:1029a000b805900012027800920290002203900075
:1029b000b20390000400be000601be004f18de0006
:1029c0006011b8008000eb00d0b79f00e1b79f0016
:1029d000f2b79f0083bf9f00800478000900e000e9
:1029e000060032006000b8006011b8000402500018
:1029f0008582580006035900878359000e00e000c5
:102a0000020035000d10a100cdb79f000900e000c5
:102a100005003a004fb097000028a30002003a00da
:102a20000038a300020032008a00e90001003700ec
:102a30008a007800f8815700a20020000800780082
:102a40005f0307000900e00003003a00cfb09700e1
:102a50000128a300080032000000e90000814500c1
:102a6000b1c2b3000900e00001003200d1c2b300de
:102a700001497800060037000138a3000400320045
:102a80000000e9008080450002c2b300824878005f
:102a9000480190000201e9000001510080804500da
:102aa0004fb297008a0178000c0078003a050700c1
:102ab0009c0090000188a300040032009800900060
:102ac000810f500001003d00010078004f077800a1
:102ad0004f06be004f05be004f04be00cf00b10040
:102ae00000000600000006002f04b000889fbe0012
:102af0008a9fbe008c9fbe008e1f7800b09f9f00f3
:102b0000a1a79f00a37f9f0011007800d0a79f007e
:102b100091009000f1a79f00afa19700a301900042
:102b2000c3a79f002fa2970044029000a49f9f007c
:102b3000afa297003507900012047800920490002d
:102b400022059000b20590006022b8006033b80002
:102b50000800be000a01be00340b07000000e000c0
:102b600003003d000bf0a200d0c2b3000400370008
:102b70005fa397000628a30008003200b0c2b3008c
:102b8000004f7800cfa397008703e90087af9f002d
:102b900010002000e0a79f000f003700dfa0970083
:102ba0000138a3000800320000c2b300004f7800d3
:102bb0004fa197000201e90082af9f00130020009f
:102bc000e3a79f00040037004fa2970084af9f0047
:102bd0008002eb00e5a79f000800be000a01be00ce
:102be000c0ff0700f4ff2f00f5ff2f00f6ff2f00b6
:102bf000f7ff270004026000858260000603610081
:102c0000878361006000b8000200200003ff2700f6
:102c10000020e10001a8e10002b0e10003b8e100fa
:102c200010003a002f7b97008600fb001104b100d2
:102c3000efa3970007004700f98f500002003e0005
:102c4000812a210001003700c12a2100310a070032
:102c5000c02a2100360a0700efa0970001014000ba
:102c6000140037000020e10001a8e10002b0e100fb
:102c700003b8e100120036002f7997008200fb00b4
:102c80001104b100efa1970003004700f98f500035
:102c900002003e00012b210001003700412b2100e2
:102ca0001c0a0700402b2100210a07006fa2970091
:102cb000040140005fa29700cfa1970049023700ae
:102cc0006022b8006033b8000800be000a01be00f0
:102cd000d60a07000000e000680032006000b8007b
:102ce0000200200003ff2300d0af9f00e1af9f0050
:102cf000f2af9f0083b79f008006eb000802be0082
:102d00000a03be0094b79f00a5b79f00b6b79f0007
:102d1000c7b79f00070037008d06e8000800be0017
:102d20000a01be00d0af9f00e1af9f00f2af9f004d
:102d300083b79f006022b8000600200047022400ed
:102d40005fa89700efa897007fa997008fb1970021
:102d50005b0c07000004be000205be000002be00be
:102d60000203be001fb09700afb097003fb19700bd
:102d7000cfb19700ad0a07000000e000e6ff3d007c
:102d80000006eb005fac9700efac97007fad9700bb
:102d90008fb597002500370040ed2f00808f56003b
:102da00019003d000c00e00016003a006022b80057
:102db00006002000073524001fb09700afb0970031
:102dc0003fb19700cfb197003d0c07000002be0055
:102dd0000203be0094b79f00a5b79f00b6b79f003f
:102de000c7b79f006022b800060020000735240006
:102df0000800be000a01be00310c07000004be003e
:102e00000205be001c0020006022b8000600200061
:102e1000470224000800be000a01be00790b07002b
:102e20000004be000205be008d06e9000802be00d7
:102e30000a03be001fb09700afb097003fb19700e4
:102e4000cfb19700790a07000000e000d2ff3500fb
:102e50000800be000a01be00d0af9f00e1af9f0096
:102e6000f2af9f0083b79f001fb49700afb49700e5
:102e70003fb59700cfb59700080037006022b80033
:102e80000600200007ff2300d4af9f00e5af9f009e
:102e9000f6af9f0087b79f008006eb00af7a9700e0
:102ea0000500fb00ba090700b07f9f007fa39700d1
:102eb000600020000600e000010035007fa09700c0
:102ec00071c6b300bf7b970081cf53000a003a0060
:102ed000ffa097000100e000cb013200cb013700da
:102ee0008d0f5000cf013c0090b79f0052c6b30039
:102ef000e2cf9f001e003700bf799700e3cf9f000d
:102f00000200370064c6b300e4cf9f000000e80071
:102f100090b79f0060c6b300efca970080cf520001
:102f200013003a000d00e00008003d006000b8000a
:102f30000200200003ff2300d0af9f00e1af9f00fd
:102f4000f2af9f0083b79f008006eb0061c6b3001d
:102f5000e1cf9f0070c6b3003f799700804f5100ca
:102f6000030032009fb197008d81410093b79f000d
:102f70005faa9700efaa97007fab97008fb39700e7
:102f8000d4b79f00e5b79f00f6b79f0087bf9f00ab
:102f90000800be000a01be0090af9f00a1af9f00d5
:102fa000b2af9f00c3af9f000006eb000802be0057
:102fb0000a03be00e49f9f00f59f9f0086a79f0025
:102fc00097a79f00310037005fb29700efb29700dc
:102fd0007fb397008fbb97001fa89700afa89700fb
:102fe0003fa99700cfa99700060b0700ae0e070078
:102ff0000004be000205be00350a0700800278000a
:10300000b5a79f005fb29700efb297007fb397001c
:103010008fbb97000800be000a01be00a80b070086
:103020001faa9700afaa97003fab9700cfab9700be
:10303000a30a07000002be000203be0007f0a200c0
:1030400094af9f00a5af9f00b6af9f00c7af9f0092
:103050006022b80006002000470224005fb09700fd
:10306000efb097007fb197008fb99700e50a07008e
:103070000002be000203be00d4b79f00e5b79f0068
:10308000f6b79f0087bf9f000c06e8009fb297002d
:10309000850f5600ccff35006f9c9700ff9c970072
:1030a0000fa597009fa597006022b800060020009a
:1030b000470124005fb09700efb097007fb1970001
:1030c0008fb997007e0b07000002be000203be000e
:1030d000d4b79f00e5b79f00f6b79f0087bf9f005a
:1030e0001fa89700afa897003fa99700cfa9970006
:1030f000ce0907000000e0000f0035005fb2970026
:10310000efb297007fb397008fbb97001fa897007f
:10311000afa897003fa99700cfa99700c309070060
:103120000000e00011003a00bfa297000508a300cc
:10313000080032000d0037006000b8006011b800d0
:10314000d0b79f00e1b79f00f2b79f0083bf9f00f9
:10315000060037006022b8006033b800d4b79f0083
:10316000e5b79f00f6b79f0087bf9f005fb297004b
:10317000efb297007fb397008fbb97000800be00a7
:103180000a01be00540a07000002be000203be008e
:1031900094af9f00a5af9f00b6af9f00c7af9f0041
:1031a0006022b80006002000470224005fa89700b4
:1031b000efa897007fa997008fb19700400b0700f9
:1031c0000004be000205be000002be000203be00f5
:1031d0001fa89700afa897003fa99700cfa9970015
:1031e000970907000000e000090035008d06e8009f
:1031f00060c6b300efca970080cf520008003a00c3
:103200001fb397000603e80096b79f001100370030
:103210005fac9700efac97007fad97008fb597003c
:1032200050c6b3006fc99700804f510009003a00a3
:103230000802be000a03be00d4b79f00e5b79f0096
:10324000f6b79f0087bf9f008002eb00d5af9f00bd
:10325000070037000800be000a01be00d0b79f007b
:10326000e1b79f00f2b79f0083bf9f00ddaf9f00d3
:103270006fa697000001eb00b2a79f00c29f9f00be
:10328000e29f9f009d9f9f00680037005fb29700fc
:10329000efb297007fb397008fbb97001fa89700ee
:1032a000afa897003fa99700cfa99700550a07003c
:1032b000fd0d07000004be000205be0084090700e2
:1032c000e90f50000100340090002000dfa19700ba
:1032d0000348a3000c003a000000e0000a003a0096
:1032e00071c6b3003f7a9700814f520006003a0042
:1032f000dfaa97000500e00003003d003fa3970010
:103300008606e80021003700cf9b97000700e00009
:103310000c003a00dfa897000100e00009003d0022
:103320000c014700e1c2b300014978000c06e80037
:103330000fa997000201e90082af9f00130020004f
:10334000c39f9f000c014700bfa6970003003700f2
:1033500001c3b300015978008d06e9000d00e000bb
:10336000fbff3a003fa29700040646008c0047008e
:1033700005c3b300854840000c06e8000480ea005d
:103380000fab97000003430086af9f005fb297002a
:10339000efb297007fb397008fbb97000800be0085
:1033a0000a01be00c60a07001faa9700afaa97002d
:1033b0003fab9700cfab9700c10907000002be00ea
:1033c0000203be0007f0a20094af9f00a5af9f00cc
:1033d000b6af9f00c7af9f006022b8000600200074
:1033e000470224005fb09700efb097007fb19700cd
:1033f0008fb99700030a07000002be000203be0057
:10340000d4b79f00e5b79f00f6b79f0087bf9f0026
:10341000dfaa97008502e900d5af9f006f9b970058
:103420000603e800e69f9f00bda79f00ef9b970063
:103430001fb09700808f530005003d00afa097009c
:103440004100900065005000800f56008fff39004a
:103450009f9e97004f9997000200e00007003a00f6
:10346000dfa197000348a300040032000c004700ce
:10347000e1c2b300014878000c06e8000c004700e8
:103480000048eb0051c6b3006fca9700814f52004d
:1034900036003a00af9a97008500e9000101470025
:1034a0000049eb008001eb000d00e00002003d0050
:1034b0008d06ea001300200022002000810378001e
:1034c0008faa9700000478000b0037008103780072
:1034d00007034700a4002000110009008406d8005b
:1034e000010278008006780000c3b300004b420060
:1034f0000201e9008502e9008700e9000d00e00013
:10350000f2ff3a000200e000f0ff3c0085af9f00b0
:103510000800780001024700b2c2b3000300e000d7
:1035200001003200d2c2b300024a78000101e90072
:1035300082004700af7997000302fb001404b1003a
:1035400053c6b300f90f520001003e0053c4b3004c
:10355000834878000faa97000482e90084af9f0097
:10356000820f560001003d00ea070700dfa2970026
:1035700063806200e20f500015003a000fab970025
:103580000600e000120034000e007800e807070093
:10359000060037008fab970087004700808040000f
:1035a00000014700924878000000e900efa0970072
:1035b000810f5000f7ff3d00010047000fa9970061
:1035c00001032000b20607000001eb00c2a79f0024
:1035d0000e007800d60707005fa29700cfa19700e2
:1035e000000178008e0078003f9897006a0207007b
:1035f0004f0778004f06be004f05be004f04be00c7
:103600002f04b1000000060010002000e48f4600e7
:1036100033fe3d0090b79f0053c6b300e3cf9f0039
:1036200053fe37000d00e00036fe350090b79f00d6
:1036300046fe37000200fa00889fbe008a9fbe0047
:1036400080057800010478000200780018019000dd
:103650002805900098007800b1bf9f00b804900042
:103660000200e000020035000110a100b1bf9f0080
:10367000ea815700820020008a007800100278005a
:103680009002900020039000b003900008007800a2
:103690004b0007003fb99700f000610004003200c2
:1036a0000000e9008080440002c3b3008248780033
:1036b0003fb99700e8006100040032000000e90013
:1036c0008080440002c2b300824878004801900024
:1036d0000201e90000015100808044003fba9700d8
:1036e0008a0178000b0078002b0207009b009000f5
:1036f0000188a3000400320098009000810f500060
:1037000001003d00010078004f05be004f04be00df
:103710000080fa0000000600ea874700889fbe008c
:103720008a9fbe008e1f7800000478000300780096
:103730007287570084e2260055c72600049fbe000a
:10374000c3962200030f78006c875700004feb00f0
:1037500011059000a1049000910578000200e0009e
:10376000020032000207780001003700728757001c
:103770000000e00002003a000e0078006c0707002d
:103780000a00e000030035008a0f500001003600f7
:103790000a0078000b0278008901780000017800a7
:1037a0008e00780008007800fb0107004f077800c2
:1037b0004f05be004f04be00af00b1000000060080
:1037c000f4874700889fbe008a9fbe008c9fbe0082
:1037d0008e1f78000605be000404be0081bf9f0056
:1037e00082b79f00f3b79f00b0009000e1b79f0041
:1037f0001301780092b79f0090069000400090005f
:103800000000e900000678000d00e00001003d0026
:103810001d002000efb19700008041000048eb0040
:103820001e0020001f0037000c06e9000fb09700b3
:10383000cf80de006109b900a0b79f00b1b79f003b
:10384000c2b79f00d3b79f000203be000002be00b4
:103850000800be000a01be005c0b070000077800ec
:10386000efb097000c80400003c3b300034847004b
:103870008d06e9000fb897000000e90080bf9f00a7
:103880002fb29700bfb297004fb39700dfb39700f6
:103890000800be000a01be00450b07000205be007d
:1038a0000004be000c00e0000d003400e00f5400e6
:1038b000e08f5c00e00f5d00e08f5d00daff3a0012
:1038c0000d00e000d8ff3c008fb897000100e00039
:1038d000030034001fb197000218a300d2ff3a0082
:1038e0000e00e00002003a00ffb197001340a10073
:1038f0000c0078004f0778004f06be004f05be0051
:103900004f04be004f01b100000006000200fa00a3
:10391000889fbe008a9fbe000005780001047800e1
:103920000200780018019000a80490009800780028
:10393000b1bf9f00b80590000200e0000200350012
:103940000110a100b1bf9f00ea815700a200200032
:103950008900780010027800900290002003900007
:10396000b00390000800780095ff07004801900020
:103970000201e90000015100808045003fba970034
:10398000890178000a007800830107009a009000fe
:103990000188a3000400320098009000810f5000bd
:1039a00001003d00010078004f05be004f04be003d
:1039b0000080fa0000000600fa874700889fbe00da
:1039c0008a9fbe008c9fbe008e1f78008004780006
:1039d0000104780082057800180190002805900005
:1039e00018077800b80090000200e00002003500df
:1039f0000e10a100010037001200200070006700c7
:103a0000e0b79f000b0032001b0278009b02900081
:103a10002b039000bb039000e00f5200e08f5a0090
:103a2000e00f5b00e08f5b00020032008a86e90055
:103a3000010037008a067800e8026700f5b79f00aa
:103a4000010032008d06e9001b0278009b02900005
:103a50002b039000bb039000e4af9f00f5af9f00e5
:103a600086b79f0097b79f00480690000c06e900b4
:103a70000c8040000048eb00efb297007fb2970047
:103a80008903780081047800d8af9f000204780091
:103a90008bbf9f008a057800034578002b00370014
:103aa0000c06e9006fab97006f006300e90f500050
:103ab00002003c000003b000010037007005b000b8
:103ac0000a03fb001604b100f90f53000c003e007e
:103ad000000378000650a0001606b100f90f53004d
:103ae00007003e00b4b79f00a5b79f00c7b79f006f
:103af000ae060700cfb39700afb297003fb2970072
:103b00000c834400004b78000804e9008d06e900ae
:103b10006fa89700ffa897000fb197009fb197007b
:103b2000460020008301d1000281d3008180d300b0
:103b30000080d3000603e900faff3a00e0af9f00df
:103b4000f1af9f0082b79f0093b79f00e10f56002f
:103b50000f0034006fa89700ffa897000fb19700df
:103b60009fb19700e00f5000e08f5800e00f590020
:103b7000e08f5900caff3a000800e000c8ff3c008f
:103b80000d00e000020034000e18a300c4ff3a004c
:103b900089007800f4b79f00870478005fac970035
:103ba0008a4178000b0578008fbd97000500e00082
:103bb000140032001b0278009b0290002b0390003f
:103bc000bb039000e4af9f00f5af9f0086b79f0056
:103bd00097b79f00e00f5200e08f5a00e00f5b00a4
:103be000e08f5b00070032000c06e9000c8040000b
:103bf000034878000c06e9000c80400002c3b300c3
:103c000002487800ffb297000500e000040032008f
:103c10000c06e9000c80400002c2b30002487800a4
:103c2000480190000201e9000c0151008c80400025
:103c30000e0278008a01780009007800d60007009b
:103c4000990090000188a3000400320098009000c1
:103c5000810f500001003d00010078004f077800ff
:103c60004f06be004f05be004f04be00af01b100bd
:103c7000000006008201780001017800f1ff2700b2
:103c800051063700881f78000004780000082000e3
:103c9000808f50001a00350010082000808f5000df
:103ca0000d00340030082000808f500014003a00ce
:103cb00092007800688050000009780010027800b7
:103cc0009002900020039000b0039000049cbe007e
:103cd0000694be000800370092027800648052000b
:103ce000000978009000900010007800d9060700c5
:103cf000009cbe000294be001000200001003700ae
:103d00000000eb004f04780000000600840820004b
:103d1000848f50001d0032000d003c00140820006c
:103d2000848f50002700320002003c00040820006d
:103d30000400370024082000848f50003600320031
:103d400044082000848f500047003a003a003700b2
:103d5000040a2000848f50002900320004003c0037
:103d600004092000848f50003f003a002a003700e9
:103d7000020c2000828f500033003200020f20001e
:103d8000828f500038003a002f0037009380e900fe
:103d90000200e00005003200810978001102fb00fa
:103da000cfa2de00612bb9002c003700810978001a
:103db000114278000482fb008002eb006033b800ff
:103dc0002600370013027800e40052000200e000f1
:103dd00006003200810978001102780091029000fb
:103de0004fabde00860378001c00370081097800a5
:103df00011027800910290006033b800170037007c
:103e00009380e9008109780011027800cfa2de00da
:103e1000612bb9001100370093027800e88052004e
:103e2000810978001102780091029000210390002e
:103e3000b1039000090037009380e9000200e00020
:103e400002003200efff37009380e900810978001b
:103e5000110278008002eb006033b8000498be00c5
:103e60000690be0010000500000005004408200078
:103e7000848f50002500320008003c001408200008
:103e8000848f50001400320024082000848f5000da
:103e900024003200040820000c0037000409200030
:103ea000848f50001f00320004003c008408200072
:103eb000848f500024003a000e003700040a2000ce
:103ec000848f500011003200040c2000848f5000b9
:103ed0001d003a000d0037009380e9008109780049
:103ee0009100780001087800cf91de008288be0042
:103ef000140037009380e900810978009100780070
:103f000001087800824878000e0037009380e900ad
:103f10008109780091007800010878008208780013
:103f2000080037009380e90081097800910078004b
:103f3000010878006112b900612bb9008498be00b5
:103f40008690be001000050000000500889fbe009e
:103f5000000478004800900082047800808f5400ac
:103f600001003600800478000901780058009000b4
:103f700040040700580090000900400050049800d9
:103f8000c800900089845000490498000048eb0064
:103f90004f04be0000000600f2874700889fbe0065
:103fa0008a9fbe008c9fbe008e1f78008004780020
:103fb000010578000204780083057800610762003b
:103fc00002003a008b0f5400080039000801780005
:103fd0008a00780009007800dcff07008b0f54008e
:103fe00002003900880578001e0037000886550059
:103ff0000c017800f00f560001003600020120008d
:10400000010220007e805700210407008c06780002
:104010000500370002012000fe80570009007800eb
:10402000caff0700f0865600ef8f5600f9ff3e00ea
:104030004461de0000ff2f008091b9000c014100b7
:10404000fe80570009007800c0ff07000e00e00066
:1040500004003a00080178008a007800090078001e
:10406000baff07000b0078004f0778004f06be002c
:104070004f05be004f04be002f01b1000000060036
:1040800000000500000005000000050000017800a8
:104090000040eb008080fb0081804000232921004c
:1040a00081814100134278000404e00004003a00da
:1040b00030292100810040001140780000000600f6
:1040c00092017800934f520005003a0030292100f8
:1040d00081004000114078000309e800010037002a
:1040e0000040e800ea4f5000eaff360000000600fa
:1040f000f6874700889fbe008a9fbe008c9fbe0047
:104100008e1f780000057800010478008305780090
:10411000040678000000eb00c0b79f008080eb0031
:10412000d1b79f00e0b79f00f2b79f0000082000c2
:1041300080bf9f0098007800010078008004eb00a9
:10414000010037008904e800304178000204e000f3
:104150000300320053c2b300834f5100f9ff3a000d
:104160000900e00004003200090178000a0078002c
:1041700076ff0700188c44001807780050c2b3007f
:104180009e4f10003f013a000e07e8000e0c780029
:1041900010003700cfb097000100a0000b003700df
:1041a000cfb097000110a00008003700cfb09700f3
:1041b0000120a00005003700cfb097000130a0001b
:1041c00002003700cfb097000140a000c1b79f00a8
:1041d000000ce8001800780090407800b2c2b300ec
:1041e00082cf5000f1ff320007003c0002c2b30052
:1041f00082cf5000f0ff320032c2b30082cf5000b5
:1042000007003a00efff3700d2c2b30082cf500060
:10421000e0ff320002c3b30082cf5000e0ff320063
:10422000a2c2b30082cf50000d003a00000ce8009b
:104230001c80e900000e780010007800e0b79f00b5
:104240000000e0000f003d00cfb097000100a20089
:10425000c1b79f000000ea00e0b79f0009003700e7
:1042600039010700e0b79f0001003700000ce800ab
:10427000180078009000fb000103b100e98f5000a6
:10428000faff36004fb097000008a300020032008a
:104290000010a100c0b79f0018007800e1c2b30071
:1042a00090cf100016003a008000eb00d1b79f00bd
:1042b0000000e800000c7800a1c2b30090cf10000d
:1042c00006003a00000ce8001c80e900000e7800af
:1042d00010007800d0b79f00090037001a010700ce
:1042e000d0b79f0001003700000ce80018007800ec
:1042f0009000fb000103b100e98f5000faff360087
:104300000800780061ff07008046780018007800f8
:104310001000fb009e04070091062000810f500052
:104320003800320012003c0041062000810f50008e
:10433000340032000a003c0011062000810f5000ba
:104340002000320031062000810f5000a000320012
:1043500051022000810f5000bc003a00b400370029
:1043600071062000810f5000b8003c008800370023
:1043700001072000810f50005c00320007003c0064
:10438000e1062000810f50007a003200f106200083
:10439000810f5000ad003a0039003700510720006e
:1043a000810f50002700320081072000810f50004c
:1043b0004200320031072000810f5000a3003a0074
:1043c0008f0037008d80fb000c01780000fe2f006d
:1043d0000f0040002bfe07000000e000a8003200a4
:1043e00018007800000ce8009041780002fe2f00d1
:1043f0000f014100f88057000a00780021ff0700f4
:104400000e0037008d80fb008c0178001200200028
:1044100000fe2f000f0040003cfe07000000e000ff
:1044200097003200180ce80002fe2f000f01410037
:10443000f88057000a0078004ef907008084440095
:10444000900037008d80fb008c0178000001eb00ac
:1044500000fe2f000f0040002cfe07000000e000cf
:1044600087003200180ce80002fe2f000f01410007
:10447000f88057000a00780024fd0700efff37009e
:104480008d80fb008c0178000001eb0000fe2f0006
:104490000f0040001dfe07000000e0007800320021
:1044a000180ce80002fe2f000f014100f8805700b1
:1044b0000a0078005ffc0700e0ff37008d80fb00fa
:1044c0008c0178000001eb0000fe2f000f0040007f
:1044d0000efe07000000e0006900320018007800be
:1044e000000ce800904178001c0037008c01780037
:1044f0000001eb00010f200000fe2f000f00400024
:1045000002fe07000000e0005d003200180ce80029
:104510000fb097009fb097002fb19700bfb19700e1
:10452000e00f5000e08f5800e00f5900e08f590075
:1045300009003a00cfb597006fb49700a02821007a
:10454000fb0307000b027800880178000001780067
:10455000a12821004700370083c7b30002fe2f00c7
:104560000f014100f88057000a00780012fd070093
:10457000b2ff37000b8144008d80fb008c01780076
:1045800000fe2f000f00400038fe07003c003700ff
:104590008d80fb000c01780000fe2f000f00400012
:1045a000b8fd07000000e000350032001800780078
:1045b000000ce8009041780002fe2f000f0141003e
:1045c000f88057000a00780047f907009bff370082
:1045d00000c8b30080cf560029003a00180ce8004c
:1045e0001c80e900000e780010407800e0df9f009a
:1045f00013002000e2fd2f000f01410008003700ea
:1046000000c8b30080cf56001d003a00180ce80027
:104610001c80e900000e78008001eb00100178009a
:10462000f88057000a0078003bfc070083ff370042
:1046300000c8b30080cf560011003a00180ce80003
:104640004fb29700efb19700080037000e0c7800ca
:104650000000eb00c0b79f00e0b79f000080eb00b8
:10466000d0b79f000002eb00840178001200200008
:10467000012921000a00780047fe07006fff37007c
:10468000180ce800090078004f0778004f06be00bc
:104690004f05be004f04be006f01b10000000600d0
:1046a0008200fa00889fbe008a1f7800000578000b
:1046b00082047800c13f9f000004eb001000370027
:1046c0000902780088017800a2f72f000f0141004d
:1046d00081f72f008f8040000a00780084fe0700d9
:1046e00008004000880f500004003d00b004200086
:1046f000c09588000084eb000400370000047800b7
:104700004f3897001004e000edff3a0008007800f1
:104710004f0578004f04be000080fa00000006003c
:10472000800078001000200002022000828f5000dc
:1047300004003200e9805000e48f50000100360090
:104740000000eb0000000600889fbe008a1f780072
:10475000000578000a047800984478000805e8000d
:104760000900fb00eeff07000000e000f9ff3a003f
:10477000b0c2b30080cf540005003200d0c2b300f5
:104780008000eb0080cf540005003a0002003700a3
:104790008000eb0001003700110020000804e80051
:1047a0000000eb0003003700ea00b90002005000ef
:1047b0000003b0003801fb0003fd2f00828141009f
:1047c000e98f5100f8ff36000100e00001003a00d7
:1047d0000000ea004f0578004f04be00000006000c
:1047e000800078001000200002022000828f50001c
:1047f00004003200e9805000e48f500001003600d0
:104800000000eb00000006006f02b000889fbe00b1
:104810008a9fbe008c9fbe008e1f78000006780025
:104820000107780082047800d4af9f00e5af9f00b5
:10483000f6af9f0087b79f0040022000800f57000f
:104840007e003e00e10f57007c0032007c089000a3
:10485000bc109000810f500003003100b086fb00b7
:10486000700e9800030037000c00780091020700da
:10487000800678000d007800d9ff07000000e000f6
:10488000f2ff3a00b0022000808f5600050032008f
:104890008002eb0085af9f00d0022000808f560081
:1048a00010003a00dd82b2000df0a7008d06ea008c
:1048b0008d06e900cfeede008daf9f007c089000f2
:1048c000bc109000810f500003003100b086fb0047
:1048d000700e9800030037000c0078007502070086
:1048e000800678000e00e00002003200f00f570052
:1048f00043003a0000032000808f56003d003a003c
:104900007c089000bc109000810f50000300310023
:10491000b086fb00700e9800030037000c00780092
:1049200064020700800678008d0078000150a00026
:1049300080072000808f50002b003a007c089000f8
:10494000bc109000810f500003003100b086fb00c6
:10495000700e9800030037000c0078005502070025
:104960008006780000022100008046000e01200031
:10497000f6c0b300904f13008c0036003c1090003e
:104980000000e00003003200fc0890008100e90014
:10499000710e98000900e0000c0032006022b8009f
:1049a0006033b800d4af9f00e5af9f00f6af9f0023
:1049b00087b79f000000e000a20132007c08900051
:1049c0000000e900700e98009e0137006022b800d8
:1049d0006033b8000c007800110207006000b800d6
:1049e0006011b800930137000e00e0009f01320013
:1049f000170037000e00e00001003a00ae00200072
:104a000000022100008046001080fb008e0f500045
:104a10000f0039003c1090000000e000030032005d
:104a20007c0890000000e900700e98006022b80039
:104a30006033b8000c007800f90107006001200025
:104a4000c09588006022b8006033b800720137005a
:104a5000ea0f570055003a000004eb000d00780003
:104a60000c003700ea44b900000444000803b10018
:104a7000fc0890003c109000808f50000300310033
:104a80003180fb00710e9800020037000c007800a6
:104a90000802070001fd2f0080804000e98f5000d0
:104aa00003003e0081992100810f5400edff360084
:104ab000800678008004eb006055b80012003700d3
:104ac0001faa9700afaa97003fab9700cfab970004
:104ad0000004420081844a0002054b0083854b009c
:104ae0007c089000bc109000810f50000300310042
:104af000b086fb00700e9800030037000c007800b1
:104b0000ec0107008006780005fd2f008582460035
:104b100095af9f00e98f52000b013e00909929004c
:104b20009199290092992900939921000040e10070
:104b300001c8e10002d0e10003d8e100dd003e0041
:104b4000a4002000050020006033b8000800be006b
:104b50000a01be00ff0607001faa97008002eb00b3
:104b60006033b80094af9f00a5af9f00b6af9f0021
:104b7000c7af9f000482ea008582ea000683ea004c
:104b80008783ea00d4b79f00e5b79f00f6b79f0080
:104b900087bf9f000400e1000588e1000690e10066
:104ba0000798e100c6ff3600c20037000e00e9009a
:104bb0000e006000030032000004eb000d007800de
:104bc00066003700f770b9004500de00670060003e
:104bd00061012100008040009000fb000004eb0018
:104be0000d007800810478000b0037000944dd00d7
:104bf00001047400fc0890003c109000808f50006d
:104c0000030031003180fb00710e98000200370074
:104c10000c007800a701070001022100810040007c
:104c20009180fb008e8f500003003100f27f200046
:104c3000820f5400edff360080067800890078006e
:104c40008004eb006055b800f4ff2f00f5ff2f0043
:104c50000403be00010078000000e90005003300f5
:104c60008703d1000683d3008582d3000482d3005a
:104c7000f9ff37000d00780081067800200037002a
:104c80000d0178000201e900050033000804d0009e
:104c90008984d2000a85d2008b85d200f9ff3700c3
:104ca0000180fb008000eb006011b8000804700078
:104cb000898470000a0571008b857100fc089000e2
:104cc0003c109000808f5000030031003180fb00c9
:104cd000710e98000a0037000c00780094b79f000e
:104ce000a5b79f00b6b79f00c7b79f007101070027
:104cf000cfb397003fb39700afb297001fb29700b2
:104d00000102210081004000914078000181fb00f8
:104d10008e0f5100610031000440e10005c8e10040
:104d200006d0e10007d8e100d5ff36005b00370070
:104d30008ec4b90008844000fc0890003c1090002c
:104d4000808f5000030031003180fb00710e98000d
:104d5000020037000c007800560107000102210014
:104d6000810040009180fb008e8f500003003100d5
:104d7000b2712000820f5400edff360080067800eb
:104d80008004eb006055b80098af9f00a9af9f006a
:104d9000baaf9f00cbaf9f00120037000002440063
:104da00081824c0002034d0083834d0094af9f002d
:104db000a5af9f00b6af9f00c7af9f007c089000d3
:104dc000bc109000810f500003003100b086fb0042
:104dd000700e9800030037000c00780035010700c2
:104de0008006780000022100008046001040780014
:104df000e0cf9f00804278000580fb008e0f5000be
:104e0000280031006174b8006055b8000802be0087
:104e10000a03be00f0ff2f00f1ff2f000001be00cb
:104e2000e30507001faa9700afaa97003fab9700c2
:104e3000cfab97000020e10001a8e10002b0e10043
:104e400003b8e10017003e000802be000a03be00de
:104e50001fa89700afa897003fa99700cfa9970078
:104e60003c060700efca97000584fb008004eb00b6
:104e70006055b8000882ea008982ea000a83ea00e5
:104e80008b83ea000400e1000588e1000690e10060
:104e90000798e100c1ff3600020037008006780065
:104ea000040037001fac9700afac97003fad9700f0
:104eb000cfad970000022100008046001080fb006b
:104ec0008e0f5000200031000d00780009003700df
:104ed000fc0890003c109000808f500003003100cf
:104ee0003180fb00710e9800020037000c00780042
:104ef000f000070001022100010040001080fb00cb
:104f00008e0f5000f2ff390020022000c09588006b
:104f10005fab97000608a300070032005fac970064
:104f2000efac97007fad97008fb597008003eb0043
:104f300087af9f00040037005fac9700efac97008d
:104f40007fad97008fb597003c1090000000e00007
:104f5000030032007c0890000000e900700e980009
:104f60005fa89700efa897007fa997008fb19700df
:104f70000040e10001c8e10002d0e10003d8e100f7
:104f80001c0039000008a3000e003a008fa897000b
:104f90000100e0000b003a0020022000c0958800cc
:104fa0005faa9700efaa97007fab97008fb3970097
:104fb00061025200e0825a0060035b00e0835b0004
:104fc000150037005fa89700efa897007fa997000a
:104fd0008fb197000040e10001c8e10002d0e1007c
:104fe00003d8e1000300360020022000c0958800ad
:104ff000140037008fa89700e18f40000b003a00a3
:105000006000b8006011b8000802500089825800a2
:105010000a0359008b835900d4af9f00e5af9f006e
:10502000f6af9f0087b79f00060037000800be005c
:105030000a01be00d0af9f00e1af9f00f2af9f001a
:1050400083b79f005fa89700efa897007fa99700fc
:105050008fb197004f0778004f06be004f05be0086
:105060004f04be006f02b100000006008e00200059
:10507000cefe37008001780002003700b159780079
:105080000201e9000200e000fcff3a000000060017
:10509000889fbe008a9fbe00800478000200e00066
:1050a0005b00320001407800814c7800828144002e
:1050b000f1f99f00e20f510055003600914498002d
:1050c000a1449800e1f99f00d1f99f00e60f51003b
:1050d0004f003600b1449800c1f99f00e80f51001d
:1050e0004b0036000905ea00630565000a844400a8
:1050f0000a055100c1ff2f00010565000080fb007b
:105100008000eb0012102000131020006602070040
:10511000008cbe000a01440060b99f0071b99f0075
:10512000e80f55003a00360020049800310498003a
:10513000400498005104980020b99f0031b99f00a5
:1051400040b99f0051b99f00f80f5500300036005c
:105150006004980071049800000c9800110c9800ed
:10516000200c9800310c9800400c9800510c9800cd
:1051700020b19f0031b19f0040b19f0051b19f000d
:1051800060b19f0071b19f0000b99f0011b99f00ed
:1051900064016400780141000204440002055500e6
:1051a0006011b8000203be000002be000403be008e
:1051b0006022b8000000720081807200020173005a
:1051c0008381730010003700009cbe000294be0073
:1051d00040049800510498006204980073049800f9
:1051e000000c9800110c9800220c9800330c9800c9
:1051f000400c9800510c9800620c9800730c9800b9
:105200000a02b1000802b000ff0f5500eeff3e0099
:10521000090078004f05be004f04be0000000600e4
:10522000889fbe008a9fbe004410980055109800c9
:105230006610980077109800f00890002004900005
:1052400001045400cfc4de00614db9000818980075
:10525000191898002a1898003b189800e00f52007f
:10526000e08f5a00e00f5b00e08f5b000c00320023
:105270000014900001045400cfc4de00614db90059
:105280000440e10005c8e10006d0e10007d8e100d4
:1052900003003400048240003410980002003700fc
:1052a00080109000311098004f05be004f04be00e2
:1052b000000006002800fa00889fbe008a1f7800c0
:1052c00000047800f808900028009000008050004a
:1052d000081a9000981a9000281b9000b81b9000a4
:1052e000cf80de000402400085824800068348002b
:1052f0008783480048109000d810900068119000f3
:10530000f8119000e00f5000e08f5800e00f5900b6
:10531000e08f5900050032000020e10001a8e10003
:1053200002b0e10003b8e1000d003d000800780084
:10533000d4b79f00e5b79f00f6b79f0087bf9f00d7
:10534000c6000700800478005fb29700efb29700b4
:105350007fb397008fbb97000900e00016003d0067
:1053600078089000a8009000808050004f89de00ef
:105370000482400085024900060349008703490072
:10538000041c9800151c9800261c9800371c9800d7
:1053900030149800f0ff2f00f1ff2f000001be0035
:1053a00040149800511498006214980073149800e7
:1053b0008084eb005200370061004200e0804a0028
:1053c00060014b00e0814b0090bf9f00a1bf9f0098
:1053d000b2bf9f00c3bf9f0048129000d812900038
:1053e00068139000f813900094b79f00a5b79f0032
:1053f000b6b79f00c7b79f00e00f5200e08f5a007a
:10540000e00f5b00e08f5b0028003200780d900019
:10541000081190000a0151006112b900612bb90016
:10542000d4af9f00e5af9f00f6af9f0087b79f0006
:105430001fb09700afb097003fb19700cfb1970072
:105440001fba9700afba97003fbb9700cfbb97003a
:1054500004005000858058000601590087815900da
:1054600090af9f00a1af9f00b2af9f00c3af9f005e
:105470005faa9700efaa97007fab97008fb39700c2
:105480000020e10001a8e10002b0e10003b8e10062
:10549000060034009fb297001fbb970006815200a0
:1054a00082004500311498000200370088139000f4
:1054b0003714980028019000f808900081015100ed
:1054c0001fba9700afba97003fbb9700cfbb9700ba
:1054d0004f98de0004824100850248000603480020
:1054e00087034800041c9800151c9800261c98008f
:1054f000371c9800828f500001003e00f9f89f0091
:10550000090078004f0578004f04be000080fa00c3
:1055100000000600881f780000047800080078006a
:1055200063000700080078004f04780000000600c0
:1055300080007800040037003104e00002003a00e7
:105540000000510000000600010178000108a300de
:10555000f9ff3a008101780031017800f4ef2f0063
:10556000020242000281ea000201620004082800ef
:1055700004016100f7ff3200830078000101780028
:105580003104e000fdff3a00000051000000060079
:10559000f1fb2f0080804000f98f500001003e0099
:1055a0000050a00000000600f9ff3700f1f92f00bd
:1055b00080804000f98f500001003e00f005b200ed
:1055c00000000600f9ff3700f28747008e1f7800c1
:1055d00002027800030178000000e00002003200bf
:1055e0000007780001003700728757008002eb0047
:1055f0000100e000010032008102e90070805700e4
:10560000060009000018eb000080eb0080bf9f003f
:105610002310200093bf9f00aebf9f00b1bf9f002b
:10562000c5bf9f000100e00003003d00b104200061
:10563000c195880006003700004feb00eebf9f00c9
:10564000debf9f008400780070805700380007009c
:105650004f0778002f01b100000006000200fa0099
:10566000889fbe0000047800080078003e00070014
:105670008084eb000000e00009003a0098119000df
:1056800012002000e68057000800780003000100a7
:10569000e10f500002003a002ff897008084fb00d1
:1056a000090078004f04be000080fa0000000600e8
:1056b0000101780080017800008268000408a300de
:1056c000050032001300370032407800805978001e
:1056d0000004e00014003200030278000208a30076
:1056e000f9ff3a0003007800010037000318780042
:1056f00082007800b2017800f5ef2f00838242002b
